:100000000C9446000C9465000C9465000C946500FB
:100010000C9465000C9465000C9465000C946500CC
:100020000C9465000C9465000C9465000C946500BC
:100030000C9465000C94B7000C9465000C9465005A
:100040000C9465000C9465000C9465000C9465009C
:100050000C9465000C9465000C9465000C9465008C
:100060000C9465000C9465000C9465000C9465007C
:100070000C9465000C9465000C9465000C9465006C
:100080000C9465000C9465000C94650011241FBE4F
:10009000CFEFD0E4DEBFCDBF11E0A0E0B1E0EAE5F4
:1000A000F5E000E00BBF02C007900D92A231B1074E
:1000B000D9F721E0A2E1B1E001C01D92A532B2075B
:1000C000E1F70E946D020C94AB020C940000CF93F8
:1000D000DF93CDB7DEB781E890E02BE0FC01208311
:1000E00088E890E02DE730E0FC01318320838FE643
:1000F00090E022E0FC01208384E890E022E030E000
:10010000FC01318320838091000190910101A09135
:100110000201B09103018093130190931401A09305
:100120001501B09316018FE590E02FE530E0F9015D
:1001300020812068FC0120830000DF91CF91089589
:10014000CF93DF93CDB7DEB781E890E0FC0110825A
:100150000000DF91CF910895CF93DF93CDB7DEB745
:1001600081E0809312010000DF91CF9108951F92EA
:100170000F9200905F000F92112400905B000F928D
:100180002F933F934F935F936F937F938F939F939F
:10019000AF93BF93EF93FF93CF93DF93CDB7DEB7CA
:1001A0008091130190911401A0911501B091160155
:1001B0000197A109B1098093130190931401A093B1
:1001C0001501B09316018091130190911401A09133
:1001D0001501B0911601892B8A2B8B2B91F40E946B
:1001E000AC008091000190910101A0910201B091B9
:1001F00003018093130190931401A0931501B09310
:1002000016010000DF91CF91FF91EF91BF91AF9167
:100210009F918F917F916F915F914F913F912F911E
:100220000F9000925B000F9000925F000F901F9064
:100230001895CF93DF9300D000D0CDB7DEB7698398
:100240007A838B839C8389819A81AB81BC818093E3
:10025000000190930101A0930201B09303018091EA
:10026000000190910101A0910201B09103018093DE
:10027000130190931401A0931501B093160100008F
:100280000F900F900F900F90DF91CF910895CF9323
:10029000DF9300D01F92CDB7DEB789837B836A835B
:1002A00089818A3031F48A819B81BC018DE00E9472
:1002B000470180EC90E0FC018081882F90E0807203
:1002C0009927892BB1F386EC90E02981FC012083EA
:1002D00080E090E00F900F900F90DF91CF91089504
:1002E000CF93DF93CDB7DEB78091230190912401A6
:1002F000009719F0019741F020C081E090E09093C1
:1003000024018093230119C080911B01853078F06E
:1003100080911701833030F4809117018F5F8093B3
:10032000170103C081E08093170110921B01809197
:100330001B018F5F80931B0100000000DF91CF91B4
:100340000895CF93DF93CDB7DEB780911F019091D1
:100350002001009719F0019741F01DC081E090E065
:100360009093200180931F0116C080911C018C3056
:1003700060F080911801882321F481E080931801B6
:1003800002C01092180110921C0180911C018F5F15
:1003900080931C0100000000DF91CF910895CF935E
:1003A000DF93CDB7DEB780911D0190911E010097BC
:1003B00019F0019741F036C081E090E090931E0162
:1003C00080931D012FC080911701813019F481E0C5
:1003D0008093190180911701823019F482E0809393
:1003E000190180911701833019F484E08093190179
:1003F00080911801813081F480911A01882331F4B1
:10040000809119018860809319010BC080911901B6
:1004100080618093190105C080911901877F8093C5
:100420001901000085E290E020911901FC01208370
:100430000000DF91CF910895CF93DF93CDB7DEB762
:1004400080912101909122018130910569F08130E4
:10045000910518F0029711F13CC081E090E0909373
:1004600022018093210135C080E290E0FC0180816F
:10047000882F90E081709927892B39F482E090E0F1
:10048000909322018093210106C081E090E0909337
:1004900022018093210110921A011BC080E290E09A
:1004A000FC018081882F90E081709927892B39F099
:1004B00081E090E0909322018093210106C082E0C8
:1004C00090E0909322018093210181E080931A01B2
:1004D00000000000DF91CF910895CF93DF93CDB757
:1004E000DEB781E290E0FC01108282E290E02FEF23
:1004F000FC01208384E290E02FEFFC01208385E261
:1005000090E0FC01108210922401109223011092BD
:10051000200110921F0110921E0110921D011092D5
:100520002201109221016AE070E080E090E00E94D8
:1005300019010E9467000E9470010E94A1010E949F
:100540001C020E94CF010000809112018823E1F378
:0A05500010921201F0CFF894FFCFD3
:10055A000100000000000002000000004701000046
:02056A0000008F
:00000001FF
